:020000022000DC
:1060000080FF00202DA7040059A7040075C70300D6
:1060100055A7040061A7040065A704000000000064
:1060200000000000000000000000000009700300F4
:106030006DA7040000000000A96F03005DA7040025
:10604000C9D3040075A7040075F2040095EC0400A0
:10605000A5EC040075A7040049CC04000DE504007C
:1060600075A7040075A7040075A7040075A70400B0
:1060700075A7040075A7040075A7040075A70400A0
:10608000EDB20400A94A040075A7040075A7040036
:1060900075A7040075A70400F1CD030075A70400DF
:1060A00075A7040075A7040075A7040075A7040070
:1060B00075A7040075A704000000000000000000A0
:1060C00075A7040075A7040075A7040091CE04000D
:1060D00075A7040075A70400A9C70300000000000D
:1060E00000000000000000000000000000000000B0
:1060F00000000000000000000000000000000000A0
:10610000000000000000000000000000000000008F
:10611000000000000000000000000000000000007F
:10612000000000000000000000000000000000006F
:10613000000000000000000000000000000000005F
:10614000000000000000000000000000000000004F
:10615000000000000000000000000000000000003F
:10616000000000000000000000000000000000002F
:10617000000000000000000000000000000000001F
:10618000000000000000000000000000000000000F
:1061900000000000000000000000000000000000FF
:1061A00000000000000000000000000000000000EF
:1061B00000000000000000000000000000000000DF
:1061C00000000000000000000000000000000000CF
:1061D00000000000000000000000000000000000BF
:1061E00000000000000000000000000000000000AF
:1061F000000000000000000000000000000000009F
:1062000010B5054C237833B9044B13B10448AFF3F0
:1062100000800123237010BDD82B00200000000057
:10622000C864060008B5034B1BB103490348AFF32C
:10623000008008BD00000000DC2B0020C8640600C0
:10624000154B002B08BF134B9D46A3F5803A002148
:106250008B460F461348144A121A2CF0BFFE0F4B00
:10626000002B00D098470E4B002B00D09847002001
:10627000002104000D000D48002802D00C482CF02D
:10628000FEFB2CF0CDFC2000290020F0F5F92CF0CD
:1062900003FC00BF0000080080FF00200000000099
:1062A00000000000D82B0020F0FA00207F2A050013
:1062B0000000000080B582B000AF7860054A7B68BE
:1062C0001360054B1B68184624F0ECFF0837BD46E9
:1062D00080BD00BF6C2D0020782C002090B593B0BD
:1062E00002AFBA607B600346FB810B46BB815F4B0C
:1062F0001B7883F00103DBB2002B04D040F237118E
:106300005B4801F025FE7B685A4A934204D05A4B01
:106310001B68184624F0BCFF584A7B681360BB8991
:106320005F2B04D940F23F11514801F011FE0023C8
:106330003B620023FB610023BB6107F1180307F1F7
:106340001C0207F12001F88916F0D4FDB98907F184
:106350001002FB89184607F004FF7863BB897A6B4B
:1063600013443B63BB69396B184616F0ADFD034619
:1063700087F82F3097F82F3083F00103DBB2002B22
:1063800010D07B6B99B2BC8907F11002F889BB6809
:106390000093234616F0DEFD39494FF4FA2007F04A
:1063A00023FB5DE0BB699BB203F00303BB857B6B02
:1063B0009AB2BB8913449AB2BB8D13449BB2033388
:1063C0009BB223F003037B850023FB63BB8DFA6B39
:1063D0009A4208D22B4AFB6B1344FF221A70FB6BC4
:1063E0000133FB63F2E7BB8D264A134407F110012A
:1063F0007A6B18462CF0CAFDBA8D7B6B1344214A88
:106400001344BA89B96818462CF0C0FD0023BB6359
:10641000BB6B032B0DD8BA8D7B6B1A44BB891A4416
:10642000BB6B1344174AFF21D154BB6B0133BB63D1
:10643000EEE7F989B889BB69BA68127801920093CE
:1064400003460A461049012020F096F8BB6923F064
:1064500003037B627A8D0D4B0A49786A07F0FAFADA
:10646000012318464437BD4690BD00BF802C002054
:10647000E8520500B56202007C2C0020742C00203C
:10648000FDBB0300F42B0020F852050061BC0300A3
:1064900080B584B000AF03463A60FB800B46BB80FA
:1064A000344B1B7883F00103DBB2002B04D04FF494
:1064B000B771314801F04CFD304B1B68184624F091
:1064C000E7FE2F4B1B680021184624F0D5FE03463B
:1064D00083F00103DBB2002B04D040F27311264895
:1064E00001F036FDB988F888264B3A68FFF7F6FECA
:1064F0000346FB73FB7B83F00103DBB2002B05D06B
:106500002149012020F038F800232EE01C4B1B68A5
:1065100040F6B831184624F0AFFE0346BB73BB7B90
:1065200083F00103DBB2002B08D01849012020F0D2
:1065300023F84FF4C171104801F00AFD144B1B6899
:10654000BB600F4B1B68184624F0ACFEBB68002BE9
:1065500005D0FA88BB680F49012020F00DF8BB6810
:10656000002B0CBF01230023DBB218461037BD46B9
:1065700080BD00BF802C0020E85205007C2C00204C
:10658000782C0020B56202003053050054530500FA
:106590006C2D00208453050001482CF008BF00BF7B
:1065A000B35305002DE97047E3B00DF1080ADDF89B
:1065B000B0911C4680460D46164600214FF4C0722D
:1065C00050462CF00BFDBDF8A811A4F13202404654
:1065D000CDE900A90623B2FBF3F36B9A09F036FA72
:1065E0004B4622463146284601F0F1F863B0BDE83B
:1065F00070872DE97047C3B00DF1080ADDF83091BE
:106600001C4680460D46164600214FF480725046C7
:106610002CF0E4FCA4F132034B9ABDF8281140465B
:10662000CDE900A99B0808F0F1F94B462246314616
:10663000284601F0CCF843B0BDE8708710F8013B64
:10664000002BFBD17047000010B50021044602F07A
:10665000C3F8074B23600023C4E903332372237577
:10666000044A0549182301201FF086FF204610BD6B
:10667000FCBB0500BC530500CD53050010B5034B12
:106680000360044623F0BCFE204610BDFCBB0500A1
:1066900010B50446FFF7F2FF20462BF06FFD2046B1
:1066A00010BD0000014A0F2121F034B854B8050094
:1066B000014A0F2120F0F4BF54B805002DE97043C2
:1066C00092B000240DF12C09164605461C2288467E
:1066D000484621460C94ADF838400F942CF07EFCCF
:1066E0000C22214608A82CF079FC1BF0E7FB05AA38
:1066F000314619F0D6FFA8B108AB05AA31462846A5
:10670000CDF8009000F0E1FA494603A801F04CF9F9
:10671000284603ABC822414601F098FEC82012B0BB
:10672000BDE870834FF4CA70F9E72DE9704F9EB051
:1067300000240DF12008054691460E4618222146F8
:1067400040469A46ADF828400B94ADF830400D9481
:106750002CF044FC102221460DEB02000DF1380B09
:106760002CF03CFC2146402258462CF037FC9AF88D
:1067700000308DF80830CDE900B804AB02AA4946D4
:10678000284600F0F5FAC828044609D1414602A877
:1067900001F010F902AB22463146284601F056FEC0
:1067A00020461EB0BDE8708F2DE9704F9EB00024CA
:1067B0000DF1200805468946164621461822404616
:1067C0009A46ADF828400B94ADF830400D942CF06B
:1067D00005FC102221460DEB02000DF1380B2CF0C8
:1067E000FDFB2146402258462CF0F8FBCDE900B8CD
:1067F00004AB52464946284600F00EFBC828044622
:1068000009D1414602A801F0D5F802AB2246314633
:10681000284601F01BFE20461EB0BDE8708F000028
:106820002DE970478DB08846154606461BF046FB9D
:106830008146406917F0D2FCD9F82CA0DAF8043070
:106840000593B8F80630013B09F12C040E2B00F239
:10685000C881DFE813F00F00320045004F005E00F2
:1068600077009300C000E2000401250179015A017C
:10687000A001410100230993EB6808AA197830466A
:1068800000F0B8F9C828044609D108A906A801F003
:1068900085F806AB22464146304601F0D7FDD9F8CF
:1068A000140017F08FFCC82C04D022464146304615
:1068B00001F092FE0DB0BDE87087E9680DF112029B
:1068C000304600F0B9F9C8280446E8D1BDF81230C6
:1068D000ADF8183006A908A810F0C2F808ABD9E73F
:1068E000284608F0D6F8414602463046FFF7E6FE55
:1068F0000446D4E7284608F0CCF82946039008A8B7
:1069000008F0BFF8039A08AB41463046FFF70DFF89
:10691000EEE7284608F0BDF82946044608A808F026
:10692000B0F8EB6906AD1B780095214608AA304601
:1069300000F03EFAC8280446B1D1294608A801F063
:106940003FF8CBE7284608F0AAF858B90599039113
:10695000284608F09EF80399034642463046FFF762
:1069600023FFC5E7284608F097F805AA0146204608
:1069700019F0A1FDC828044691D1E7E76B68022B06
:1069800016D805990391284608F083F86B69039996
:106990001B7806AD02460095304600F056FAC8282E
:1069A00004467FF47CAF294608A801F00FF895E76C
:1069B0002B8B0E2B01D8002BE3D005F1180021F012
:1069C000B4FC05AA0146204619F075FDC828044606
:1069D0007FF465AFD5E7284608F061F880B90599DE
:1069E0000391284608F055F80399024606AB304655
:1069F00000F053FAC82804467FF451AF06A9D3E744
:106A0000284608F049F805AA0146204619F053FD2A
:106A1000C82804467FF443AFE1E7284608F03FF872
:106A200080B905990391284608F033F80399024686
:106A300006AB304600F045FAC82804467FF42FAF75
:106A400006A97BE7284608F027F805AA0146204654
:106A500019F031FDC82804467FF421AFE1E728464C
:106A600008F01DF878B9EA680599127806AB304647
:106A700000F047FAC82804467FF411AF06A908A819
:106A800000F0AAFF2AE7284608F006F805AA014602
:106A9000204619F010FDC82804467FF400AFE2E755
:106AA000284607F0FCFF50B9284607F0F2FF059B87
:106AB00002464146304600F046FAC824EFE6284632
:106AC00007F0EAFF05AA0146204619F0F4FCC828A1
:106AD00004467FF4E4AEE7E7284607F0E0FF38B964
:106AE000EA6805990DF11203304600F0BBF8EAE6BA
:106AF000284607F0D1FF05AA0146204619F0DBFC25
:106B0000C82804467FF4CBAEEAE7284607F0C7FF63
:106B100048B96868A0B90090059A43465146304686
:106B200000F0CAFDC9E7284607F0B6FF05AA0146EE
:106B3000204619F0C0FCC82804467FF4B0AEE8E750
:106B4000284607F0A6FFE6E7284607F0A8FFA8B901
:106B50000599039100232846079307F09AFF0399AC
:106B6000024606AB304600F0DEF9C82804467FF442
:106B700096AE06A908A800F035FFAFE6284607F054
:106B80008BFF05AA0146204619F095FCC82804464B
:106B90007FF485AEDCE7514608A819F078FC0024A4
:106BA0004FF6FF7508A819F060FCA8420DD0089BAD
:106BB0005B685B689B68A34218BFC4EB441408A8D9
:106BC00018BFE41819F035FCECE72246074908A87D
:106BD0002CF04AFB08ABC8224146304602F0B0FC1C
:106BE0006BE703484FF4E07101F0B2F9E23D0600B3
:106BF000DD53050013B5144601911BF05FF90199AF
:106C000019F094FDA0B190F8602003692270426EE3
:106C100062609A782272DA7862721A79A2725A796C
:106C2000C2F38202A273DB88A381C82002B010BD28
:106C30004FF4CA70FAE7000010B586B0144603910D
:106C40001BF03CF9012300930399054B05AA1BF0A7
:106C50004FFDC82804BFBDF81630238006B010BD14
:106C6000F000FFFF2DE978470C46164698460025B0
:106C70004FF0060A6268B2F86010ABB2994203D8CE
:106C80004FF4CA70BDE87887536A1FFA85F90AFB8A
:106C90000933D118D35C012B15D1236849889B682F
:106CA00020469847014670B14FF0FF3230461FF042
:106CB00007FC40B942464946204620F0C0FE002865
:106CC000DED0C820DEE70135D4E72DE97847089CFF
:106CD000154621801046984619F0A0FAD5F808A06C
:106CE00060609AF80230C3F3430323724FF6FF79D2
:106CF000BAF80A106868A4F8149020F05DFE08B392
:106D0000831E00260A3033F8022F4A451EBF711C2D
:106D100028F81620CEB28342F5D1284619F07EFA23
:106D200003787B2B04BFBAF80C30A382AB68A68132
:106D30009A88E282DA881B89C4F8108022836383F0
:106D4000BDE878870646E8E730B587B0144601917C
:106D50001D461BF0B3F8019903AA19F0A2FC20B15B
:106D600021782A4603A819F013FA07B030BD0000B5
:106D700010B588B01C460D4B049313788DF80C3079
:106D800003AA04ABFFF7E0FF68B10B9B01930A9BDA
:106D900006980093079ABDF81410234608F096FE53
:106DA000C82008B010BD4FF4CA70FAE73CBB05001C
:106DB00070B586B01E46174B029313788DF80430D9
:106DC00001AA02AB0A9DFFF7BFFFF8B102A817F0B6
:106DD0003AFE0446D0B118F067FEC0B2B04215D9F1
:106DE00034F8164002A8214617F040FE70B103782F
:106DF000DB0758BF03882C8054BFC3F34E03002326
:106E00006B804388AB80C82006B070BD4FF4CA7059
:106E1000FAE700BF3CBB05001FB50C4620461146F3
:106E2000CDE9022320F0D9FDDDE90213024648B185
:106E30000798019006980090204608F047FEC82069
:106E400004B010BD4FF4CA70FAE72DE978410C4642
:106E500020461146069D984620F0BFFDD0B14188DE
:106E6000204620F0CBFD0646A0B118F01DFE40459F
:106E700010D936F818602046314620F0CFFD48B1D1
:106E800003886B8083782B7183882E80EB80C820E9
:106E9000BDE878814FF4CA70FAE738B50846114664
:106EA00015461C4620F0BAFD40B103886380837804
:106EB000237183882580E380C82038BD4FF4CA70D1
:106EC000FBE74FF6FF70824230B517D04868B0F844
:106ED0006810914212D9416B01EB82014418455C64
:106EE000ED0758BF415A1A8058BFC1F34E0162885E
:106EF0009A8048BF00215980C82030BD4FF4CA7025
:106F0000FBE7FF2A0CD04868B0F870108A4207DA15
:106F1000416C1A7001EB4201425A5A80C8207047F6
:106F20004FF4CA70704738B51C460B6808469B681A
:106F300011461546984718B160602580C82038BDB5
:106F40004FF4CA70FBE72DE970431D461B6890B0F3
:106F5000DB6806468846284611469146984704460F
:106F600030B94FF4CA724146304601F035FB67E054
:106F700000212C2205A88DF817108DF81A108DF815
:106F80001E108DF822108DF82810ADF82C100C91E1
:106F90008DF83410ADF838100F912CF01FF82378CD
:106FA000042BDED8DFE803F00320303C4F00A37849
:106FB0008DF818304FF480726379ADF8162022797D
:106FC000ADF8149043EA022301228DF81A20ADF89F
:106FD0001C3005A903A800F0DBFC03ABC822414626
:106FE000304601F033FA2BE001238DF81630628829
:106FF000ADF82020A288ADF814908DF81E308DF8E1
:107000002230ADF82420E4E702238DF8163063889F
:10701000ADF8149001228DF82220ADF82430D8E785
:107020002B6861885B6928469847002899D005AB92
:10703000CDE9004342464B462946304600F016F85B
:1070400010B0BDE870832B68A2889B69294603A80D
:107050009847049B002B84D005ABCDE90043424602
:107060004B462946304600F027F8E9E72DE97047FE
:10707000E5B00DF1100ADDF8B491984604460E46CD
:10708000154600214FF4C07250462BF0A7FF6C9AB2
:107090003A2341463046CDE900A908F0D7FC4946DD
:1070A00002A800F075FC02ABC8222946204601F078
:1070B000CDF965B0BDE870872DE97047C5B00DF119
:1070C000100ADDF83491984604460E461546002114
:1070D0004FF4807250462BF081FF4C9A5723414663
:1070E0003046CDE900A907F091FC494602A800F01E
:1070F0004FFC02ABC8222946204601F0A7F945B053
:10710000BDE870872DE9704F2DED028BA4B008EE1D
:10711000101ADDF8B8900693044692469846237AF2
:10712000082B00F20682DFE813F009003A008F0016
:10713000D400FE0026018801B00112021AF0BEFE42
:10714000C3691E781B7A1E44F6B200964B4606AA07
:107150004146204600F028FB0546002800F05B81F0
:107160004FF0000BE368B34280F0558110220021FC
:1071700014A8CDF854B02BF031FF217B14AA20467F
:10718000FFF738FD14AB4A4606A9404600F038FB2D
:10719000002800F03F81E3680133E360E2E7DAF8BA
:1071A0000430B3F8726000964B4606AA414620466A
:1071B00000F0FAFA0546002800F02D810DF1500B81
:1071C000E368B34280F0278100231593ADF85C306B
:1071D000002319461C22584618932BF0FFFE0AABD9
:1071E0000093E16818EE100A07AB0DF1160219F0D2
:1071F0004EF8C82819D0BDF81630ADF850300F231E
:107200008DF85830AB4B15934FF0FF33CDE9193360
:107210005B464A4606A9404600F00BFB002800F0FA
:10722000F980E3680133E360CAE70C2200210EA86D
:107230002BF0D4FEBDF81610CDF800B00EAB07AAA7
:107240002046FFF742FDE3E7DAF80430B3F86C605C
:1072500000964B4606AA4146204600F0A5FA054690
:10726000002800F0D8800DF1380BE368B34280F0BD
:10727000D28000234FF000021946ADF84020ADF84F
:10728000482058461822119313932BF0A7FE102282
:1072900000210AA82BF0A2FE14AB402200211846C0
:1072A0002BF09CFE14ABA289009351460AABCDF89B
:1072B00004B02046FFF7B0FD5B464A4606A94046AB
:1072C00000F0D0FA002800F0A580E3680133E36005
:1072D000CBE7DAF80430B3F8686000964B4606AAAC
:1072E0004146204600F060FA0546002800F09380F1
:1072F000E368B34280F08F800622002114A82BF0AF
:107300006DFEA28914AB51462046FFF7DAFD14AB9F
:107310004A4606A9404600F0BEFA00287AD0E36843
:107320000133E360E4E7DAF80430B3F86460009610
:107330004B4606AA4146204600F036FA054600288C
:1073400069D0E368B34266D20822002114A82BF06A
:1073500045FEA28914AB51462046FFF79EFD14ABB3
:107360004A4606A9404600F0AFFA002852D0E3682A
:107370000133E360E5E7DAF804300DF1180BB3F8F8
:10738000606000964B465A464146204600F00CFA93
:10739000054600283FD0E368B3423CD2CDE90093D4
:1073A00042465B465146204600F0F0F818B1E368CB
:1073B0000133E360EFE7069A424540F0C1803E4961
:1073C000039001201FF0D8F8039B8DF85330194625
:1073D0002C2214A88DF856308DF85A308DF85E3076
:1073E0008DF86430ADF868301B938DF87030ADF8CF
:1073F00074301E932BF0F2FD4FF6FF73ADF8503052
:107400008DF852304A4614AB5946404600F0DFF939
:107410000028CCD10546E3689E4200F29580227A8E
:107420000023E36023822375072A00F28C80DFE8C3
:1074300002F0899D9FA1A3A5A7A9DAF80430B3F8AB
:10744000706000964B4606AA4146204600F0ACF913
:1074500005460028DFD0E368B342DCD204220021D5
:1074600014A82BF0BBFD227B14AB51462046FFF73E
:1074700048FD14AB4A4606A9404600F03EFA0028F3
:10748000C8D0E3680133E360E5E7DAF80430DA688E
:10749000B3F8541013440022934690B281420DD9A0
:1074A00013F8010B18B90BF1010B1FFA8BFB01321A
:1074B000F3E700BF91340600F25305004B4606AADD
:1074C0004146CDF800B0204600F06EF9DAF8003001
:1074D00005469B680021504698475E460390002D64
:1074E00099D0E3685B4596D200231946082214A878
:1074F00015932BF073FDE368CBB1208A039B1844EE
:10750000FFF79CF8039B1590C31AADF850304A461C
:1075100014AB06A9404600F009FA00283FF47AAF00
:10752000BDF850302382E3680133E360D9E7039864
:10753000E8E7154901201FF01FF8002601256AE73A
:10754000054668E701232372002D7FF4E8AD069B12
:107550002F9AA3EB08031360207AA0F10803584286
:10756000584124B0BDEC028BBDE8708F0223EAE7DE
:107570000323E8E70423E6E70523E4E70623E2E73D
:107580000723E0E70823DEE74B5405002DE97043AD
:1075900090B0884615461799DDF858900DF1120203
:1075A00040461E4620F04BFA044600287ED00021BB
:1075B0002C2205A88DF817108DF81A108DF81E10C2
:1075C0008DF822108DF82810ADF82C100C918DF844
:1075D0003410ADF838100F912BF000FD2378042BF8
:1075E0005BD8DFE803F0032032404D00BDF81230D5
:1075F000ADF81430A3788DF818304FF480726379A9
:10760000ADF81620227943EA022301228DF81A20D0
:10761000ADF81C3005AB4A463146284600F0D7F895
:1076200010B0BDE87083BDF81230ADF814300123FE
:107630008DF816306288ADF82020A2888DF81E30B3
:107640008DF82230ADF82420E4E7BDF81230ADF813
:10765000143002238DF816306388ADF824300122EF
:107660008DF82220D6E705ABCDE90143BDF81230F5
:10767000009332464B4629464046FEF793FFCFE73C
:1076800005ABCDE90143BDF81230009332464B46BD
:1076900029464046FEF7ADFFC2E7054901201EF02E
:1076A0006BFF044840F26D4100F052FC0120B7E747
:1076B0007D540500DD5305002DE970471E46438AC1
:1076C000E9B004468946924683B1BDF8C021934291
:1076D0000CD0314901201EF04FFF40F2A712314675
:1076E000204600F079FF69B0BDE8708700214FF4B3
:1076F000C87204A82BF072FC284B1A6812F0010F14
:10770000274A01BF40F28711116001211960638A85
:107710002BB9C4E9033323722375738863820DF197
:107720000C08CDF804801368009352460DF119033C
:107730000025494620460395FFF7E4FCD8F80030C1
:1077400003F10902B2F5C87F0AD9164901201EF0DB
:1077500013FFC4E90355257225754FF4FA72BEE78D
:107760001A0A8DF811301B0C8DF810508DF812206C
:107770008DF8133005958DF8185050B1C4E90355B4
:107780002572257504ABC8223146204601F000FF62
:10779000A9E704AB6422F7E7B95405008C2C00205C
:1077A000F82F0020F654050037B5054608462C7D15
:1077B00011461A4644B9069BADF806300DF1060392
:1077C00000F0CDF804462875204603B030BD80B5E2
:1077D00086B000AFF860B9607A603B6007F11003D3
:1077E0003968184600F0D4F807F110007B68BA68D1
:1077F000F96807F063F9034618461837BD4680BD9F
:1078000080B586B000AFF860B9607A603B6007F180
:1078100010033968184600F0C1F807F110007B68C2
:10782000BA68F96807F04AF9034618461837BD46A2
:1078300080BD80B586B000AFF860B9607A603B600B
:1078400007F110033968184600F0AEF807F1100090
:107850007B68BA68F96807F031F9034618461837AB
:10786000BD4680BD80B586B000AFF860B9607A6073
:107870003B6007F110033968184600F09BF807F1E8
:1078800010007B68BA68F96807F018F903461846D3
:107890001837BD4680BD80B586B000AFF860B960CE
:1078A0007A603B6007F110033968184600F088F8E9
:1078B00007F110007B68BA68F96807F0FFF8034623
:1078C00018461837BD4680BD80B586B000AFF86059
:1078D000B9607A603B6007F110033968184600F020
:1078E00075F807F110007B68BA68F96807F0E6F8E8
:1078F000034618461837BD4680BD80B586B000AF38
:10790000F860B9607A603B6007F110033968184687
:1079100000F062F807F110007B68BA68F96807F0B8
:10792000CDF8034618461837BD4680BD80B586B0F1
:1079300000AFF860B9607A603B6007F11003396806
:10794000184600F04FF807F110007B68BA68F96834
:1079500007F0B4F8034618461837BD4680BD80B519
:1079600086B000AFF860B9607A603B6007F1100341
:10797000396818460FF074F807F110007B68BA6890
:10798000F96807F09BF8034618461837BD4680BDD6
:10799000014AC0E9002170472B000300014AC0E9F9
:1079A0000021704722000300014AC0E9002170470E
:1079B00023000300014AC0E90021704725000300AD
:1079C000014AC0E90021704726000300014AC0E9CE
:1079D0000021704727000300014AC0E900217047D9
:1079E0002C000300014AC0E9002170472D0003006C
:1079F00070B505460C468E18B44206D02B6814F8B4
:107A0000011B1B6928469847F6E7012070BD032338
:107A10000375704703230373704703230371704793
:107A2000427D0B46012001491EF0A6BD4C550500C4
:107A300010B50449044601201EF09EFD0223237365
:107A4000012010BD5C550500A0F10800FFF7F0BF54
:107A500010B5054A022104461FF05CFEC82806BF87
:107A600001202073002010BD805F0500A0F10800F8
:107A7000FFF7EEBF10B504462AF080FB204610BD8C
:107A800080B10378022B03D0032B0BD03BB9704796
:107A900043689B0706D0044901201EF06DBD0320FA
:107AA00024F010B8704700BF7855050008B50546AA
:107AB00000F10806686A16F08FFA286A16F08CFA48
:107AC0006C69B4421DBFD4E903231361DA6000245A
:107AD000286A16F055FA002CECD0E86A20B1036849
:107AE000D4E90012DB689847AB6A23B11B6813B175
:107AF00001462068984720461DF040F9DDE770B543
:107B00000446006A16F068FA04F108066569B54291
:107B10000ED0D5E903231361DA60A36A23B11B6891
:107B200013B128680021984728461DF027F9EDE792
:107B3000206ABDE8704016F023BA000010B5074B6C
:107B400003600446C0691EF0FFFB606A16F064FB28
:107B5000206A16F061FB204610BD00BF3CBE050048
:107B600010B50446FFF7EAFF20462AF007FB20463F
:107B700010BD000038B51149054601201EF0FCFC7F
:107B80000F4901201EF0F8FC23F024FF40B123F040
:107B9000E1FE002023F0B6FC0A4901201EF0ECFCB7
:107BA00027F06EFF08490246044601201EF0E4FC5F
:107BB000B4FA84F2520985F8242038BDA355050093
:107BC000DA550500FA5505000F56050010B50349B2
:107BD00004461FF09BFD0023237310BD805F05004A
:107BE000A0F10800FFF7F2BF10B5074B03F1080240
:107BF00054330446026040F8083F20F07BFA2046E8
:107C000022F0FEFB204610BD74B80500A0F108006C
:107C1000FFF7EABF10B50446FFF7E6FF20462AF05B
:107C2000ADFA204610BDA0F10800FFF7F3BF000039
:107C3000784B794A79482DE9704F0024784D9A6045
:107C4000784ADFF89CB2DFF89CA2C3E900444FF405
:107C5000E821C3E903122BF0AAFB9E222146284605
:107C60002BF0BCF9214685F89E409E2205F19F002D
:107C70002BF0B4F96C4B85F83D4102260325042214
:107C80004FF001084FF005095A709D70DD705D716D
:107C9000DD711D725D725E739E731E745E749E75DF
:107CA000DE751D765D769D761C701C719C7183F867
:107CB0000A8083F80B801C73DC7383F8129083F8BE
:107CC000139083F814905C7554482BF070FB534864
:107CD0002BF06DFB554B564956481960D860C3F8D8
:107CE00004B0C3F808A0544B04221E7683F8242065
:107CF00083F830501C705C601C7283F80C801C612F
:107D00001C75DC6183F820409C6283F82C405C6326
:107D100083F8384083F83C901C6483F84440FEF7B5
:107D20003BFC464B464A1A60464A5A60464A9A60AD
:107D3000464ADA60464A1A61464A5A61464A9A6198
:107D4000464ADA61464A1A62464B474A1C80474B0C
:107D500037491A60464B474AC3F808A0C3E9001BDD
:107D6000454B46481A60464A5A60464A9A60464A17
:107D7000DA60464A1A61464A5A61464B464ADA6018
:107D8000464A1A61464AC3F808A0C3E9001B5A6173
:107D9000444A454BC3E90024444B83F80080444BDC
:107DA0001E72C3E90044434B434EC3E900441D72B5
:107DB000424B434D1C701FF09BFD424A424B1360E7
:107DC00045F6B103013B16D015F801CB0821802000
:107DD0001CEA000FA64614BF4FF001084FF0000840
:107DE00048EA4404BEF1000FB8BF744001394FEABD
:107DF0006000EDD1E6E73548354984420CBF0C46BA
:107E000000245460334AC2E90033334B334A1A60CA
:107E1000BDE8708FC02B002001CB0200B3530500DA
:107E2000A82E0020FFFF07003C2E0020CC2C0020B5
:107E30003A5605004F560500182D0020102E002040
:107E400020BA050068B9050044B9050004BA050068
:107E50008CB90500C0B90500ECB90500A8B905004A
:107E6000D8B90500582E002090BB05005C2E0020DC
:107E7000A42D00205A560500B42D00207C2E002091
:107E80006156050066560500725605007B560500D2
:107E900083560500B02C00208D5605009E56050027
:107EA000A456050050BA0500342E0020602E002094
:107EB000702E0020642E0020B71DC104612E00200A
:107EC000905F0500842C002020B90500BDC6C4CAFF
:107ED000845F0500A02E0020FC2F0020E981040013
:107EE000405605004856050038B5038804469BB146
:107EF000C3788BB18578C5F38105012D05D11FF0BD
:107F0000C1FC064928461EF037FBE27804490120EF
:107F10001EF032FB0023E37038BD00BFB3560500EE
:107F2000D556050073B5054610460E4601922BF056
:107F30003EFA431CB342044688BF06F1FF34019960
:107F4000224628462BF022F80020285502B070BDAA
:107F50000A4608B50146012015F0E0F81CF0D3FAF6
:107F600070B5044680690E4616F010F86568CDB904
:107F7000237FA0690133DBB2237715F0F1FF294697
:107F8000206916F015F80546A06915F0FFFF237F5C
:107F9000013BDBB22377002DE8D1A06915F0E0FFAB
:107FA000284670BD63681BB910485321FFF7D0FF06
:107FB0002368E1680C2202FB031207CA86E8070067
:107FC000A16860690133B3FBF1F201FB1233236056
:107FD0006368013B636018B1637F0BB115F0D0FF9C
:107FE000A06915F0BDFF0125DAE700BFE7560500DF
:107FF0002DE970472B4DD5F800A050451E4634BFE3
:1080000000230123044689460AFB13012648C5B014
:10801000C05C90460DF10E020FF074F82D685445C7
:1080200038BF0025651BAB0C9B041BB11F488D217D
:10803000FFF78EFFB9F1FD0FE4B2C4F5807428BFDD
:108040004FF0FD094C4528BF4C4641466DBA2246CB
:108050000DF11200ADF810502AF098FF14239DF88E
:108060000E10009304AAA31C012005F04FFC054646
:10807000022023F07FF841F2863800230DF10F0231
:10808000012118460FF050F828B9012023F072F8AA
:10809000B8F10108F1D105B13460284645B0BDE81A
:1080A000708700BF0830002010300020F656050011
:1080B000406810B50C4620B906484FF49371FFF79D
:1080C00047FF0368D1E90012DB68984708B1002335
:1080D000636010BD015705002DE9704305460C464D
:1080E00000264FF07D08D4E90003EA6803441044F9
:1080F000D4E9022111449142944613D9984211D9EE
:1081000012F801EBAEF17D09B9F1010F1DD894F819
:108110001090B9F1000F15D103F8018B984212D8D5
:10812000012222742268A1EB0C019B1AC4E9013CD4
:10813000E16069B121462846FFF7BAFF0028D2D195
:10814000BDE8708326748EF0200E03F801EBD2E7B1
:108150000120F5E72DE97041836816467E2287B03D
:108160001A70836801930123CDE902310D464FF067
:10817000000801A9044604968DF81480FFF7ACFFAF
:1081800018B9002007B0BDE8708129463246404644
:108190001EF0BEF9042300900DEB03012046CDF83C
:1081A0000CD00493FFF798FF0028EAD0E368029A06
:1081B0009A420AD2029B5A1C0292019A7E21D15401
:1081C000204601A9FFF774FFDCE701A92046FFF76D
:1081D0006FFF0028EED1D4E770B5037D012B044674
:1081E00037D17E29056913D0C368AB420AD97D29EE
:1081F00005D08368681C20615955002070BD02239A
:108200002375FAE7032329490375FFF709FCF4E70F
:108210000023042D03751AD98668043D05612A469A
:10822000184631461EF074F9735983420CD16068C8
:1082300018B955211E48FFF78BFE03682A463146C0
:10824000DB68BDE8704018471A492046DDE71A4947
:10825000DBE753B901227E2902750361CDD07D2968
:10826000CDD0836802611970C7E7022B15D17E2932
:108270000FD07D2909D0012303750369826881F03D
:108280002001581C2061D154B7E703230B49037523
:10829000BBE700230A490375B7E7032B01D0A021F0
:1082A000C8E77E29A9D10023AAE700BF115705001E
:1082B00001570500205705002C5705003C570500C5
:1082C0004E57050010B50C4611461A464FF6FF737F
:1082D0009C4203D104482F21FFF73AFE0068204456
:1082E000BDE810400EF0B2BE5F57050070B50E46F7
:1082F0000021054617F067FC4FF6FF7398420446CD
:1083000008D0A8682A698188036804FB01229B6859
:1083100031469847204670BD1E4B73B50922036055
:1083200000230446436003810273C3816FF47F42DC
:10833000838283614FF6FF7580F82130FF2380F838
:1083400022300261C56180F8201019F0B7FDA38BBF
:10835000AB42064604D04FF46C710F48FFF7F8FDAE
:10836000406915F03BFFB06B019401A90830FFF79D
:10837000BDFF0546706915F025FF2B0402D540F2BC
:10838000B731EAE76FEA45406FEA5040A0832046E4
:1083900002B070BD9CBA05007C57050030B50124C1
:1083A00080F8884080F889308DB000F18A038C18FD
:1083B00011F8015B03F8015BA142F9D10023CDE97B
:1083C00005338DF8103003238DF81C300A4B0893C9
:1083D0000A4B0A9302AB0B93023208AB0093ADF841
:1083E000082000F188020392C16B012205AB0992BB
:1083F0001FF09AFC0DB030BD1CBB05000449030002
:1084000070B500F16C030446002513F83520632A8B
:1084100016D105F10D060C4B54F8361020460522F6
:108420001FF0BCFF6FF47F4344F8363004EBC50403
:10843000002384F86C3084F86D3084F86E3070BDA1
:108440000135042DE1D1FAE7702E00202DE9704F9F
:1084500080468EB00C4615461E461FF099F8D8F897
:108460000030E90300F0010A9B688346404644BFA0
:108470004FF0010A25F4803598476AF3000B07ABEB
:108480000DF1100A0193CDF800A0E3885A464FF091
:108490000201814619F0B6F9C82805D0204618F027
:1084A000D5F80EB0BDE8708F63789A061FFA85F88C
:1084B00016D5B8F5967F0DD203F00F01042901D12E
:1084C000318839B9204618F0C1F8637843F0800349
:1084D0006370E6E7217AC3F3401363F382012172EC
:1084E0001BF0010F4AD107A9484618F0BEFB00282F
:1084F00044D1637803F00F03029340F2F5139845DB
:1085000002D13388002B39D02E4B02990A930AAA44
:10851000504617F03DFE002841D041460AA817F00A
:10852000D9FC039000283AD0B378DB07039B48BFFF
:10853000B6F800B0598858BF4FF6FF7B59451DD09B
:108540005A460AA817F02EFDC0B91F4901201EF097
:1085500013F8504617F062FEADB2029B1B49009320
:108560000246BDF81030019501201EF005F8039B6E
:1085700017495B885A4601201DF0FEFFB8F5967F2B
:108580003EBF637843F080036370124B1B78009307
:10859000424633462146484619F0EEFF81E70A4934
:1085A00001201DF0E9FF504617F038FEADB2029BE6
:1085B00000930246BDF810300449019501201DF0DA
:1085C000DBFFDBE73CBB05008B570500B057050020
:1085D000CD570500612E002030B585B004460D460C
:1085E00002A8064901921FF013FB019A02AB29462B
:1085F0002046FFF72BFF05B030BD00BF7C2E0020CA
:1086000030B5044687B00D4601201C491DF0B4FF6B
:10861000237B022B06D040F2F71229462046FFF7B3
:10862000DBFF25E0EB88B3F5605F23D100238DF8F5
:108630000A30A38BADF80830E37F8DF80C30236A45
:10864000049394F826308DF8143094F825302BB12B
:1086500001238DF80A30A37F8DF80B30084B00936F
:1086600002AB0193C8226B4629462046FFF7EEFE77
:1086700007B030BD4FF4CA72CFE700BFED57050019
:10868000013803002DE9704F04468CB01E46884621
:10869000C3F303134FF001011546128819F09CF83B
:1086A000310C204618F024FB814620B9494840F29D
:1086B0006321FFF74DFC606915F090FD05EB480361
:1086C0000093C8264FF0160A009BAB427BD035F8CA
:1086D000021B06AB03AA04F12C0017F041FFC828C7
:1086E00004D0C82E08BF4FF4CA76EDE7BDF82020AD
:1086F000B9F806309A4205D040F29313C82E08BF4D
:108700001E46E1E7216C35F802BC01F1080841463C
:1087100009A818F089F808F10808099BBDF8281085
:10872000DB8901918B420DD009A818F042F8C3886B
:1087300001995B4502D1404617F016FA09A818F0D6
:108740004BF8EAE7B9F80610206A19F01BF8BDF8F3
:108750002210E06B18F00EF88046B8F1000F2BD015
:1087600098F803B0BBF1000F17D198F8021020461B
:10877000090917F0F3FFB8F8042035F8023CADF80A
:1087800026200A934FF4FA72012309A90C30ADF8A0
:1087900024A0ADF82CB019F0A1FDE36BB8F80010DF
:1087A0000193184617F0E6FF019B834641461846A1
:1087B00017F008FFD846D0E74FF0FF3306A808931C
:1087C00017F033FD80E7606915F0FCFC30460CB013
:1087D000BDE8708F7C570500154B73B50360154BD2
:1087E000044643EA0131416019F068FBE2884FF624
:1087F000FF739A42054604D040F2ED110E48FFF790
:10880000A7FB406915F0EAFC686B019401A90830E8
:10881000FFF76CFD0646686915F0D4FC330402D5F9
:108820004FF4FA71EAE72046E68002B070BD00BF5F
:10883000E0BA05000000FFFF7C57050070B50C1D75
:1088400001F1140590F801E090F800C086784FEA35
:108850008E0202F03C02330142EA9C121CF03F0CF3
:1088600003F0300318BF0CF12F0C43EA1E13B608B7
:1088700004F804CC02B12F3204F8032C0BB12F33CF
:10888000DBB204F8023C0EB12F36F6B204F8016CEC
:108890000434A54200F10300D4D100230B7470BD51
:1088A0002DE97043057B05F5E8652D0286B0044689
:1088B000284689460FF040FC002864D01022294643
:1088C00002A82AF063FBBDF80E2002F11003FF2B73
:1088D0005FD82368029999425BD1BDF80C30002B18
:1088E00054D0A188994251D3E18891424ED39DF84A
:1088F0001400217B88424CD1A380049BA3600026F6
:108900009DF815306373E68105F1100148462AF0A1
:108910003DFB102202A930461DF0FAFDBDF80E8085
:10892000494642461DF0F4FDC8F1EC0804468DF8B6
:108930000360B04515D10422002305F1FC010DEBC5
:10894000020001932AF022FB019B9C4212D00120DD
:10895000134922461DF010FE6FF0020006B0BDE87C
:108960007083204601220DF103011DF0D1FD013677
:108970000446DEE79DF81500FF280DD0013818BF2A
:108980004FF0FF30EAE76FF00700E7E76FF0050010
:10899000E4E76FF00400E1E76FF00100DEE700BFFD
:1089A0001458050010B5BCB0044602A80EF0A4FE91
:1089B000431CDBB2012B01D902300FD114210DF180
:1089C00059002AF034FD0DF1590113280ED8421C2C
:1089D00020462AF019FD01203CB010BD044B196857
:1089E000019108462AF0E3FC0199EEE70020F3E745
:1089F000182A00201FB504234000CDE900130C46BF
:108A0000012340F001008DF80F001A460DF10F010F
:108A1000184604F04FFD22681304C2F3074103F423
:108A20007F030B4302F47F421343236004B010BD65
:108A30001FB50B0C8DF80D304000002349BA8DF89E
:108A40000C00ADF80E10CDE90033042203A901207B
:108A500004F030FD05B05DF804FB00002DE9704125
:108A600091B004460D4604A80021FFF755FC0020F4
:108A7000134B049301210D908DF8380015F0D8FBAD
:108A8000DFF844800F4E0F90043C54F8043F8BB144
:108A90002A78009358F822203146002301201DF047
:108AA0006BFD2B7821688DF80C3003AA04A818F010
:108AB000C9FBEAE704A818F001FC11B0BDE8708119
:108AC000B8BB050036580500202A00202DE9704F5C
:108AD00040F2FB139A428AB080460C4615461DD0E0
:108AE0006FF4FB7302EB0309B9F1010F94BF4FF070
:108AF00000094FF0010905A920461EF0F3F894F88B
:108B00000EB0A27B052A5FFA8BFBD3B209D8022BE9
:108B10000CD866D0002084F8280086E04FF00009C9
:108B2000E9E7062BF6D10723A3736FE094F827300B
:108B3000002B54D1E66A94F80EA01DF093FBB368A5
:108B40001B688DF804B018440623A373E37B2061EF
:108B500043F01003E373012201AB214608F10C003E
:108B600006F0E1F9102204F1300101A894F80CB0EC
:108B70002AF00CFA337C01333374D8F808005FFA1A
:108B80008AFA15F01FFBBAF1030F33685FFA8BFB0B
:108B900016D1DB692A4601A9304698470546D8F820
:108BA000080015F01BFB304618F0FBFBCA2D0CD15A
:108BB000BAF1030F38D122484FF4EF61FFF7C8F93B
:108BC0001B6A01A930469847E8E7237B9B452BD1D8
:108BD000A37B062B5FFA83FB26D1C82DA3D10223EA
:108BE000A373B9F1000F9ED1E37B03F00602062ABE
:108BF0004FF002051CD11DF035FBE37BA57300F59A
:108C00006A4043F010036030E373206101AB08F168
:108C10000C00012221468DF804B006F084F90023EF
:108C200084F82830012000E000200AB0BDE8708FF1
:108C300069F30413A573E373C4F81090E6E700BF6B
:108C4000435805002DE9704F86B09B4605AB029353
:108C50000DF11203B2F1000A01934FF000030093EB
:108C600018BF13224FF0200308BF12228046894606
:108C700007F086F8054600285AD0BDF8123046792C
:108C80001E440836841909236370BAF1000F01D01D
:108C900099F80D30AB5598F82421002A08BF1A46E0
:108CA000AA5599F82430A370D8F864201368C4F842
:108CB00003305368C4F807309368C4F80B3006F0EB
:108CC00081F9014604F10F0009F0E3FF059BE27D05
:108CD000DB6A9B68197A61F30002E2751A7AE17D1A
:108CE000C2F3800262F34101E1751B7A83F008034D
:108CF000C3F3C002CBB203F0030343EA8203E3757C
:108D00000822002104F118002AF068F90599CDF82D
:108D100000B001232A46404606F0AFFBCA280446AD
:108D200002D0284617F020F9204606B0BDE8708F23
:108D300040F2FB14F8E700002DE977410D4602A947
:108D400001E90C0006461820DDF800801EF0EEF860
:108D50000D4B03600D4BC0F80C80C0E901350025B8
:108D600004460561014630461DF0FCFE606120B9F5
:108D700007484FF48A71FFF7EBF82946057203B0F4
:108D8000BDE870411DF0E0BBFCB8050088BA0500E5
:108D90005F58050070B506460C4600256368AB4277
:108DA00008D9013504EBC501304616F063FD0028F3
:108DB000F4D170BD0120FCE770B5104991F82D5039
:108DC00091F82E6091F82F4091F8302091F83130D1
:108DD00091F83200FF2D08D106EA04052A4013401D
:108DE0001840FF3818BF012070BD35432C43224383
:108DF0001343034314BF01200020F5E7702D00202A
:108E000013B50949044601201DF0B6FB40F20113D9
:108E100001A9A0B2ADF8043013F082FF08B122F02E
:108E200051FE02B010BD00BF7D5805001FB5037A8A
:108E3000044613B9002004B010BD6023012A8DF848
:108E400008300B788DF809301CBF4B788DF80A304C
:108E50000A2300931821531C002002AA04F056FD97
:108E60000028E7D0204613F075F9E4E773B5024611
:108E700004460D4601201F491DF07EFB1E4B53F892
:108E80002460AEBB43F824501C4B032520461D55DF
:108E900004F070FF1A4B8DF80450003818BF012001
:108EA00018554FF0A04204F5E073164952F82330EC
:108EB0008DF80660C3F38103224601208DF805304A
:108EC0001DF05AFB104A01A9204623F047FD054634
:108ED00038B102460D4901201DF04EFB284622F014
:108EE000F1FD2046012123F0C3FD012002B070BD39
:108EF0000020FBE788580500AC3000202C31002012
:108F000089300020A9580500395E0300C4580500C7
:108F100013B54FF00314CDE900436B46FFF796FA03
:108F200002B010BD07B5054BCDE900326B46C82233
:108F3000FFF78CFA03B05DF804FB00BF01000300EB
:108F400030B587B048F2010300206425ADF8143035
:108F500004F064FA0095022305AA4821002004F0D9
:108F6000D5FC38B91B4901201DF006FB9FED1A0AFC
:108F700007B030BD322022F0FDF802230024019317
:108F800004AB00930295012305AA482120468DF8E1
:108F9000144004F01FFC08B91049E4E7204604F02F
:108FA000E1F99DF810309DF811209FED0D7A9FEDAD
:108FB0000D0A42EA03221309D20B1EBF5B42C3F320
:108FC0000B035B4207EE903AF8EEE77AA7EE870ACA
:108FD000CEE700BFED58050000FF7F47135905009D
:108FE0000000803D3393884313B5044CCDE9004322
:108FF0006B46FFF72BFA02B010BD00BF070003005D
:109000002DE97041ADF5037D04460D464FF48072A5
:10901000002102A829F0E2FF2146102202A829F02F
:10902000B5FFE288294606A829F0B0FFFC2202A974
:1090300000201DF06DFA042201900DEB020141A801
:1090400029F0A4FF247B04F5E864240224F440768C
:10905000B6F5E82F24F480780DD03D4B9E420AD01F
:10906000B8F5E92F07D003F5C0639C4203D0FC217B
:109070003848FEF76DFF20460FF05EF8C31D054629
:1090800030D1B6F5E82F0BD0314B9E4208D0B8F561
:10909000E92F05D003F5C0639C4201D0D721E7E753
:1090A0004FF400701BF092FE0546B0B34FF400720F
:1090B0004FF4E82129F06AFFA4F5E8204FF480720C
:1090C000FF21284429F08AFF4FF4007229464FF40B
:1090D000E82004F011FDB0F5007F28461BD11BF0FD
:1090E0004DFE00254FF4807202A9204604F004FDD5
:1090F000B0F5807F29D11DBBB6F5E82F10D0144BF9
:109100009E420DD0B8F5E92F0AD003F5C0639C420A
:1091100006D09721ACE71BF031FE6FF00305E1E7C5
:109120004FF48072214642A829F030FF4FF480723C
:1091300042A902A829F01CFF002818BF6FF00405FF
:1091400028460DF5037DBDE870816FF00305F7E754
:1091500000440700335905001FB5012360F07F006C
:10916000CDE900128DF80F001A460DF10F01002015
:1091700004F0A0F905B05DF804FB1FB500238DF8DD
:109180000C008DF80D10CDE90033022203A918461A
:1091900004F090F905B05DF804FB70B504460E4686
:1091A000012080211546FFF7E8FFA8B13C210220ED
:1091B000FFF7E3FF80B131460320FFF7DEFF58B130
:1091C00029460E20FFF7D9FF30B1237833B90021AB
:1091D0000120FFF7D2FF70B9002070BD10210420DC
:1091E000FFF7CBFF0028F7D020210720FFF7C5FFAE
:1091F0000028ECD1F0E72378002B14BF04213C2198
:109200001920FFF7BAFF0028E6D049211A20FFF7FE
:10921000B4FF0028E0D080211020FFF7AEFF002827
:10922000DAD0142021F0A6FF2378002B0CBF3821C0
:1092300000211920FFF7A1FF0028CDD000211A201E
:10924000FFF79BFF0028C7D0BDE870400021102029
:10925000FFF793BF38B504460D4601208021FFF784
:109260008CFF10B33D210220FFF787FFE8B12946AC
:109270000320FFF782FFC0B106210420FFF77DFF26
:1092800098B100210120FFF778FF70B12378002BFF
:1092900014BF04213C211920FFF76FFF28B1BDE85E
:1092A000384009211A20FFF768BF002038BD0000B0
:1092B00030B585B09B238DF80B300223019303ABAF
:1092C0000093012305460C4600201A460DF10B01C0
:1092D000ADF80C0004F0EEF818B9064901201DF0B5
:1092E0004BF99DF80C302B709DF80D30237005B0B4
:1092F00030BD00BF47590500D2ED007A91ED006AFC
:1093000092ED017AD1ED026AD3ED005A36EE676A2A
:10931000D1ED017A77EEC77A92ED027A76EEC76ADE
:1093200093ED037A27EE877AA6EE257AD3ED065AD7
:10933000A6EEA57AD3ED015A80ED007A93ED047A7A
:1093400027EE877AA6EE257AD3ED075AA6EEA57A00
:1093500080ED017A93ED057A67EE877A93ED027AD4
:10936000E6EE077A93ED087AE6EE877AC0ED027AA8
:10937000704710B50323C0E90033044624220830A7
:1093800029F004FE204610BD00B58BB003680193A0
:109390004368029383680393C36804930369059346
:1093A0004369069383690793C3690893036A099322
:1093B00001AB09221946D3ED007A67EE807A013AB3
:1093C000E3EC017AF7D10DF075FF0BB05DF804FB0B
:1093D0002DE97043224B93F80080A2B004460D465D
:1093E000B8F1000F04D140F2DD111E48FEF7B0FDC8
:1093F00010F0FF0602D04FF4EF71F6E78022FF2154
:1094000002A829F0EBFD1849D1E9003162190B449B
:109410009A4222D8DFF85490D9F8000021F00EF9D2
:10942000012003F0FBFF802D294601AB28BF8021DE
:1094300002AA20460196FEF7DBFD18B1019BED1A4A
:109440001C44F0D1012003F08DFFD9F8000021F079
:1094500021F9404622B0BDE87083B046F9E700BF6D
:1094600014300020F6560500083000201830002087
:1094700007B5054BCDE900326B46C822FEF7E6FF83
:1094800003B05DF804FB00BF0800030008B54FF40B
:10949000967021F06FFE0D4B1B7823B90C484FF4EA
:1094A0002271FEF755FD0B4C206821F0C7F80A4BDE
:1094B000206801221A7021F0EDF8084B1878012875
:1094C00002D107491DF058F813F0B8FC1430002001
:1094D000F656050018300020133000204C310020D3
:1094E00052590500826838B503680132B2FBF3F5C2
:1094F00003FB152542689542044609D0A0682369FC
:10950000472202FB003029F041FDA560012038BD53
:109510000122C260A818B0FBF3F203FB1203221D64
:10952000BFF35B8F52E8000FA84204D142E8003C31
:10953000BCF1000FF6D1BFF35B8FDFD0E6E7000090
:1095400013B5044CCDE900436B46FEF77FFF02B034
:1095500010BD00BF0C00030070B50B78012B054651
:109560000C46164605D10A460221BDE870400DF0B2
:109570006DBD49780F292246F7D90F210DF066FD00
:1095800028B1617832460F3905F10F00EDE770BD63
:1095900013B5044CCDE900436B46FEF757FF02B00C
:1095A00010BD00BF0D00030000F58073026801329A
:1095B00004D104309842F9D101207047002070474F
:1095C000214B70B5214D186821F062FE28680021FA
:1095D00021F052FE18B91E499D2021F0CDF81D49F9
:1095E0004FF4E82004F000FA044628B91A49012093
:1095F0001CF0C2FF204670BD286840F6B83121F04B
:109600003BFE38B9154901201CF0B6FF1049AE20C9
:1096100021F0B2F8124B28681E6821F043FE46B1D3
:10962000104933464FF4E82201201CF0A5FF002426
:10963000E0E74FF4E0231A68013203F10403F6D1A6
:10964000B3F5E22FF7D1D5E7602D0020642D00207F
:1096500060590500D5CA0200B5590500DE5905005C
:10966000682D00200D5A05000CB430B597B01AAB28
:109670000D460F4953F8042B0C680193502102A8A2
:109680002AF0D4F90B4902AA042021F04DFB4CB179
:10969000237B022B06D1E37F23B102AA2946204671
:1096A00009F02EFB17B0BDE8304002B0704700BF94
:1096B000842E0020355A05002DE97041D5B00546AD
:1096C0001AA80E460EF018F8044640B14FF4FA728C
:1096D00031462846FEF780FF55B0BDE870810DF198
:1096E00014080C221AA9404629F050FCCDE9014487
:1096F00088F80C401DAB13F8011B79BB01340C2C0E
:10970000F9D10A4608460DF1D7040E940DF1B904BB
:109710000F940DF1CD04109401248DF844400DF206
:1097200009140EAB1C610DF1B604C3E905480DF533
:109730009574DC613EAC1C6200241C85DC6283F8FD
:10974000241009B11885DA62214A3146CDE9032394
:10975000284603ABC822FEF779FEBDE7BDF87E20A0
:109760009DF87C10ADF824202D228DF826208DF850
:1097700027108DF829209DF87D108DF82C208DF86C
:109780002F208DF832209DF874208DF828108DF848
:109790003320BDF87A109DF87520ADF82A108DF8A9
:1097A00034209DF878108DF82D1000229DF8791046
:1097B0008DF83520074A8DF82E1009ABBDF87610CC
:1097C000ADF830100120CDE90123014601AA9AE746
:1097D000000E03009EFD05002DE97043E4B00BAEC2
:1097E00014AD1DAC00230022804626A88DF8D4209D
:1097F000ADF8D82037928DF8E02039933A933B9317
:109800008DF8F020ADF8F4203E928DF8FC20ADF8F4
:10981000002141928DF8082143934493459333608E
:109820007360B360F36033617361B361F36133629A
:109830002B606B60AB60EB602B6189466B61AB6149
:10984000EB612B6223606360A360E360236163616B
:10985000A361E36123620EF0D5F8002871D1269B45
:109860003360279B7360289BB360299BF3602A9B1E
:1098700033612B9B73612C9BB3612D9BF3612E9BFA
:10988000336201238DF8D4308DF8E0302F9B39936B
:10989000309B3A930322319B3796ADF8D8203B9307
:1098A000064602A80EF07AF8C8B9029B2B60039B0B
:1098B0006B60049BAB60059BEB60069B2B61079B79
:1098C0006B61089BAB61099BEB610A9B2B620123D7
:1098D0008DF8F0300323ADF8F4303E9506460021B4
:1098E00046A80EF071F800282DD1589B2360599B93
:1098F00063605A9BA3605B9BE3605C9B23615D9B01
:1099000063615E9BA3615F9BE361609B23620123B4
:109910008DF8FC308DF80831619B4393629B449332
:109920000322639BADF80021419445930B4B0093B8
:1099300035AB0193C8226B4649464046FEF786FD8B
:1099400009E00126ADE7002EF0D04FF4FA72494647
:109950004046FEF741FE64B0BDE87083020E03008E
:1099600013B5044CCDE900436B46FEF76FFD02B022
:1099700010BD00BF0C0003000346D0F8440210B431
:10998000D3F83C420130B0FBF4F204FB1202D3F8EE
:109990004002824205D101225DF8044BC3F84822FF
:1099A0007047D3F84402D3F84C4204EBC00403C917
:1099B00084E803005DF8044B9868C3F84422012151
:1099C0001CF014BD08B5084A13781BB9074840219C
:1099D000FEF7BEFAD2E84F3F013BDBB2C2E8413F9F
:1099E0000029F7D108BD00BF123000203E5A050003
:1099F000044AD2E84F3F0133DBB2C2E8413F0029BD
:109A0000F7D170471230002070477047054B10B5F2
:109A100004462BB1AFF3008010B12123237010BD99
:109A20001123FBE70000000062DF7047AEDF7047E4
:109A3000AADF7047A8DF70472DE9704F88B0044651
:109A40009DF84080ADF80E101E46154652B940688C
:109A50000DF10E0116F0EBF9054618B9002008B01B
:109A6000BDE8708F2B78022B0DD0032B41D0002B3B
:109A7000F4D1AB780C2BF1D12368119A1B683146D5
:109A800020469847EBE706AA2368019207AA0092AE
:109A9000D3F80880119B3246A91C2046C0472E7976
:109AA00016F0040681462BD16B886068ADF816303D
:109AB0000DF1160116F0BBF982460028CED0B04653
:109AC0004FF0010B079AB3B29A4219D9069BBDF821
:109AD00016104344CDE900B3524609EB0803204673
:109AE000FFF7AAFF01360028B8D0AB8808EB93181F
:109AF000E8E7B8F1000F05D02B7913F004080ED079
:109B00000120ACE7236811AA0092D3F80480119BCE
:109B10003246A91C2046C0470028EDD19EE7606868
:109B2000698803685B699847002897D0A0F102090B
:109B300045464FF6FF7A39F8021F5145E0D060687C
:109B400003681B6998478046002887D002796942DC
:109B5000C2F3C2031940D0070D4405D4715D681CDF
:109B600023EA05050544F1B151071CD4119B920766
:109B700005EB030B06EB050305D422681946D268F2
:109B8000204690470346B8F80210CDF804B098F884
:109B90000420C2F34002009220460022FFF74CFF4F
:109BA00000283FF45BAFB8F8043005EB9315C2E72B
:109BB00030B5447804F00105047844EA05241460C3
:109BC00044780A4DC4F342042C5D1C70437803981A
:109BD000C3F3001404700498C3F3401303701368B4
:109BE00002338B428CBF0020012030BD475F05004F
:109BF00030B585B00DF10903154601930DF10A0347
:109C00000C46009303AA0DF10B034FF0FF312846D9
:109C1000FFF7CEFF18B90A481921FEF799F99DF808
:109C20000B00039B01380234C0B264420235044089
:109C300002336D421C442840201A05B030BD00BFDD
:109C40004A5A05002DE9704785B015469DF83080C9
:109C50001C460E4619B915212C48FEF779F9012A40
:109C600001D81621F8E70DF1090301930DF10A035C
:109C7000009303AA0DF10B034FF0FF312046FFF7CD
:109C800097FF08B92321E7E7B8F1000F0AD19DF843
:109C900009209DF80A3012B963BB2E21DCE74BB3D3
:109CA0008DF80A809DF80B20039BA11C541E06F121
:109CB0000209E4B2C1F1000A04EA0A0AC9F100008B
:109CC00001EB0A080440A3EB0A0AA1449DF80930FD
:109CD000009354449DF80A302146304604F09EFC1F
:109CE00052464146484629F051F9A01C85420AD205
:109CF0005421B1E782F0010283F001038DF80920BD
:109D00008DF80A30CEE705B0BDE870877C5A0500B3
:109D10000378022B1BD0032B1ED033BB8378013B6F
:109D20000B2B22D8DFE803F00606060A0A0F0F11F4
:109D3000110F110F0120107008607047022313707B
:109D40000B60012070470423F9E70823F7E7082395
:109D50000B6004231370F4E78388C3F389130B604B
:109D60000379C3F3C2030133F4E700207047000016
:109D70002DE9704F13788AB004460E469046042BA6
:109D800019D8DFE813F0050018008800DB00900107
:109D900098F802305A1E0A2A61D8674A002000212A
:109DA000CDE90801D25CA0680092314604F0EBFBDB
:109DB000009A014608B9002571E108A829F0E6F8E3
:109DC00098F80230013B0A2B13D8DFE803F0060CA9
:109DD00014181F252B2F363A4100606803689B68D2
:109DE0009DF8201004E060689DF920100368DB688E
:109DF0009847012553E160680368DB69F0E7606814
:109E0000BDF9201003681B699847F2E76068BDF848
:109E1000201003681B6AF7E7606803685B690899AC
:109E20009847E6E7606803685B6AF8E7606803687C
:109E30009969DDE908238847DBE760680368996A68
:109E4000F7E760689DED080A0368DB6A9847D0E78A
:109E5000606803689DED080B1B6B9847C9E70C2BE6
:109E6000A9D18068036808AA1D684FF0FF33A8478E
:109E7000054600289FD0A36808999868089B8342EC
:109E800099D85A1C08921B78002BF7D16068036898
:109E90005B6B98474BE08068042204F061FB00286C
:109EA00089D0A0680222314604F06DFB002882D0E0
:109EB000B0F80090A068B8F804300268C3F38913C2
:109EC000156809FB03F308AA3146A8470546002890
:109ED0003FF471AF606803684A469B6E4FF6FF71AE
:109EE0009847B8F802302068ADF8183006A915F088
:109EF0008BFF064600283FF45EAF4FF00008606815
:109F00001FFA88F2914503680DD91B6F98473246B6
:109F100008A92046FFF72CFF606803685B6F98472D
:109F200008F10108EBE7DB6E4FF6FF719847A06878
:109F300003685B689847B2E048B8050098F80420C9
:109F40008068C2F3C2020132D2B204F009FB0546B6
:109F500000283FF430AF606803684FF6FF719B6DD7
:109F600098472068B8F8021003685B699847002892
:109F70003FF421AF831E00934FF6FF7B009B33F825
:109F8000021F0093594500F08580206803681B6913
:109F90009847804600283FF40EAF43882068ADF80C
:109FA000183006A915F030FF824600283FF403AFB1
:109FB00098F80490B8F80430A068C9F3C20909F110
:109FC00001095FFA89F9C3F389134A4631460193BF
:109FD00004F0C6FA00283FF4EEAE98F80430D90732
:109FE00022D4A0680122314604F0CDFA00283FF4C3
:109FF000E2AE0278C2B96068B8F8001003681B6E60
:10A000009847A0684A46314604F0AAFA00283FF46F
:10A01000D2AE3368019A6068B8F800101344336018
:10A0200003685B6E9847A9E798F804309A0712D442
:10A0300004AA08A95046FFF76BFE00283FF4BBAE08
:10A04000A06803683246D3F80090089B3146C847A1
:10A0500000283FF4B0AE6068B8F800100368012231
:10A060001B6E9847524631462046FFF781FE002876
:10A070003FF4A1AE6068B8F8001003685B6E9847C3
:10A0800098F804309B073FF579AFA06803685B68D8
:10A09000984773E7606803685946DB6D9847284620
:10A0A0000AB0BDE8708F406803684FF6FF719B6B84
:10A0B0009847B8F802302068ADF80E300DF10E0167
:10A0C00015F0B5FE00283FF476AE0378002B3ED1A4
:10A0D00085782168B8F804200B6806A89B69984722
:10A0E000079B002B3FF467AEAB1E052B3FF663AE1C
:10A0F00000220023CDE90423274BA0685A5D00927B
:10A10000314604F040FA014600283FF454AE009A6C
:10A1100004A828F03BFFDDF8108000264FF6FF79F9
:10A12000324606A908A816F03BFABDF82020099B84
:10A130004A4510D098450CDC0DD16068033D03689A
:10A14000042D0BD8DFE805F014181D21250000258B
:10A15000BFE70136E4E74FF6FF72EEE71B6C9DF9AF
:10A1600010109847606803684FF6FF71DB6B4BE691
:10A17000DB6C9DF81010F4E75B6CBDF9101098478C
:10A18000F0E71B6DBDF81010F9E79B6C0499984738
:10A19000E8E75B6DFAE700BF48B8050010B50C466C
:10A1A00011461A464FF6FF739C4203D104483521ED
:10A1B000FDF7CEFE00682044BDE810400DF00EB85B
:10A1C0005F5705002DE9704386B04CF6CD43ADF8DE
:10A1D00008300389ADF80A308B68CDF81230C368B7
:10A1E000CDF80E305A1CC2609DF81630CA680E4673
:10A1F00004464FF6FF7562F3020350217069ADF813
:10A200000C508DF8163029F012F921898DF81700BD
:10A21000A94245D00F310DF10703012289B2204632
:10A22000FFF7BCFF9DF807502389A288DFF8CC8098
:10A2300010351D449DF81730ADB2103325811D44F3
:10A24000ADB2AA423EBF002222811D4604F10A0996
:10A25000618923898B4212D8A94210D204314B461E
:10A2600089B202222046FFF799FF6189A3888B42B9
:10A270000ED20023A3604FF6FF73ADF80A30258994
:10A280004FF6FF78454510D149211B48FDF760FE88
:10A2900002314346022289B22046FEF713F8D7E77F
:10A2A0000023ADF80A10A360E9E79DF81730502BA2
:10A2B00001D94A21E9E7766902AB102229462046F6
:10A2C000FEF700F805F1100189B29DF8172033461A
:10A2D0002046FDF7F7FFBDF80A10414507D00431CD
:10A2E00004F10803022289B22046FDF7EBFF0120AA
:10A2F00006B0BDE8708300BF5F57050072B8050067
:10A3000070B52DED028B04460E461546B0EE408A20
:10A3100008F0D2FC68B1002E0BDB2268964208DA06
:10A3200063689D42BEBF02FB056504EB850585EDB4
:10A33000028ABDEC028B70BD70B504460E46154610
:10A3400008F0BAFC60B121688E4209DA63689D4268
:10A3500006DA01FB056104EB810494ED020A70BD8D
:10A360009FED010AFBE700BF00000000002908B5CF
:10A3700001DD002A03DC0023C0E9003308BD02FB35
:10A3800001F3202B03DD03483621FDF7E1FDC0E991
:10A390000012F3E79B5A050038B50023C0E90033EB
:10A3A00004460D46D1E90012FFF7E0FF204608F011
:10A3B00083FC48B1D4E900325A43920005F1080108
:10A3C00004F1080028F0E2FD204638BD38B5044607
:10A3D0000D46D1E90012FFF7C9FF204608F06CFCDA
:10A3E00048B1D4E900325A43920005F1080104F162
:10A3F000080028F0CBFD204638BD10B50446FFF715
:10A40000B5FF204608F058FC50B1D4E900325A4359
:10A4100004F108009200BDE81040002128F0DEBDE4
:10A4200010BD10B50021C0E900110446802208309B
:10A4300028F0D4FD204610BD2DE9704F2DED028B84
:10A440000646C8B008460C4608F036FC002842D044
:10A45000D4E900539D423ED1012D40F3FB802146BB
:10A4600004A8FFF799FF26A8FFF7DBFF26A82A46D6
:10A470002946FFF7C2FF26A808F01EFC78BBDFEDD7
:10A48000888A0024AC4200F00181049B03FB044352
:10A4900003F1020904F1010804ABC34603EB890A86
:10A4A0009AED000A26F0B8FFB4EEE80AF1EE10FAD1
:10A4B00003D55D459AED000A1CD104AB03EB890975
:10A4C00099ED008AB0EE480A26F0A6FFB4EEE80A3D
:10A4D000F1EE10FA58D53046FFF7A3FFDAE06A1C18
:10A4E0009200294628AB4FF07E500139C7D318603F
:10A4F0001344FAE7049B04AA03FB0B4302EB830318
:10A50000D3ED027A30EE270A26F086FFB0EE408ABD
:10A510009AED000A26F080FFB4EEC08AF1EE10FA40
:10A520002FDD049B03FB0B4203FB044304A902320F
:10A53000023301EB820201EB83032146F3EC017A43
:10A54000B2EC017A013177EE877A8D4243ED017AE0
:10A55000F4D1269B03FB0BF2634326A9023202339C
:10A5600001EB820201EB830300218D4209D0F3EC61
:10A57000017AB2EC017A77EE877A013143ED017A04
:10A58000F3E70BF1010B8BE7DDF810E00EFB048124
:10A59000023104AB03EB81030193019A43469D42D0
:10A5A00007D0B2EC017AC7EE087A013342ED017AA6
:10A5B000F5E7DDF8989009FB04F026AA023002EBDB
:10A5C000800084460022BCEC017AC7EE087A013292
:10A5D00093424CED017AF6D14FEA8902039226AA02
:10A5E00011464FEA8E02029204AA02EB840E4FF04B
:10A5F000000C644524D09EED027ADDF804B00EF123
:10A600000C0AC1464B450AD0FBEC016AFAEC017A10
:10A61000E6EEC77A09F101094AED017AF2E701F1A4
:10A62000080A83464FF00009FBEC016AFAEC017A54
:10A63000E6EEC77A09F101094B454AED017AF3D1FB
:10A64000039A0CF1010C1144029A63459644D0D14F
:10A65000444617E77FF43FAF002211462046FFF73C
:10A660006BFEB5EE400AF1EE10FA3FF434AF21462E
:10A6700026A8FFF791FE002211462046FFF75CFE58
:10A68000B7EE007AC7EE007ACDED287A26A93046DB
:10A69000FFF782FE304648B0BDEC028BBDE8708FFC
:10A6A0006F12833A2DE97F4F0C4605461646FFF799
:10A6B000B8FE204608F000FB002847D022687368E7
:10A6C0009A4243D1284662683168FFF74FFE6368BB
:10A6D0009FED207A019305F1080B0020019B834236
:10A6E00034DD2368009303FB00F10231324604EBB2
:10A6F0008103039352F8083B99000291DC464FF026
:10A70000000E73451CDDDDF80CA0ACEC017A91461F
:10A710004FF00008009988450EDAD9ED006ABAECCE
:10A72000016A5CED017A0299E6EE267A894408F125
:10A7300001084CED017AEDE70EF1010E0432E0E77D
:10A7400023EAE3730BEB830B0130C7E7284604B021
:10A75000BDE8708F00000000002870B5B4BF4FF056
:10A76000FF3601260D1EB8BF764228F0A1FA044636
:10A77000284628F09DFA012884BF04EB5004B4FB5E
:10A78000F0F404FB06F070BD2DE9704390F81780DB
:10A79000037D06460D46144648EA0308052957D8A6
:10A7A000DFE801F01F03335A718B037853B3802124
:10A7B0005820FEF7E2FC4FF0B00900215C20FEF7C4
:10A7C000DCFC3F2C04D9424901201BF0D5FE2C466D
:10A7D00021465B20FEF7D1FC20215E20FEF7CDFC58
:10A7E0004D46F37D3BB910211520FEF7C6FCF37DE5
:10A7F000002B08BFA84641461020FEF7BEFC0120F2
:10A80000BDE870834FF01009D7E7037813B38221B6
:10A810005820FEF7B2FC02215920FEF7AEFC0021C1
:10A820005A20FEF7AAFC80215B20FEF7A6FC082137
:10A830005E20FEF7A2FC072C04D9264901201BF05C
:10A840009BFE0024210101F0F0015A20FEF795FC47
:10A850003025C6E70221DBE7037893B18221582037
:10A86000FEF78BFC21465920FEF787FC00215A2079
:10A87000FEF783FC00215B20FEF77FFC40215E2079
:10A88000E4E70221EBE703781BB180215820FEF7B3
:10A8900074FC00215C20FEF770FC10215E20FEF7A6
:10A8A0006CFC072C04D90C4901201BF065FE012427
:10A8B00044F00801C9B25D20C8E700215820FEF726
:10A8C0005CFC00215E20FEF758FC454689E700BF8E
:10A8D000A65A0500ED5A0500295B05002DE97741D0
:10A8E000884616461D46012200230DF107015A2015
:10A8F0008DF807308DF806308DF80530FEF72CFC0A
:10A9000018B9002003B0BDE8708101220DF10601E5
:10A910005920FEF721FC0028F3D001220DF105019A
:10A920005820FEF719FC0028EBD09DF80740089A44
:10A93000230988F800309DF80630C4F3810403F041
:10A940001F0334702B709DF8053003F00E03137055
:10A95000D8E7000043786BB9837D402B0DD0602B86
:10A960000ED0DFED097A9FED090A202B08BFB0EE6B
:10A97000670A70479FED060A70479FED060A704709
:10A980009FED050A704700BF4F76EF3C4F766F3C56
:10A990009A99193E0392333D65646F3D30B5044684
:10A9A000807F85B010B903F0BFFAA07700230122A1
:10A9B0000DF10F010F208DF80F30FEF7CDFB08B918
:10A9C000002020E09DF80F30A3F16A014A424A417D
:10A9D00022706270A3F16902012A01D9452BEFD1DF
:10A9E000A378012B11D9237833B9A27D21212046E8
:10A9F000FEF7D3FB0028E3D0A378012B40F0828040
:10AA0000204602F0D3FD05B030BD237DFF2B05D1DC
:10AA10000C233F49237501201BF0AEFD637DFF2B06
:10AA200005D10C233B49637501201BF0A5FDA37DD7
:10AA3000FF2B05D100233849A37501201BF09CFD95
:10AA4000237EFF2B02D0E37DFF2B0AD10023E37589
:10AA50004FF48053238380233049A37601201BF0D9
:10AA60008BFDE17819BB11200191FEF786FB01995E
:10AA700005461520FEF781FB2840C5B201211220B2
:10AA8000FEF77BFB002D9BD0002899D04FF4FA7580
:10AA900001220DF10F011046FEF75EFB00288FD05A
:10AAA0009DF80F30DB0702D5013DF1D188E7022088
:10AAB00020F060FB74211220FEF75FFB00283FF4BA
:10AAC0007FAF2378E3B104211320FEF756FB002863
:10AAD0003FF476AF01211520FEF74FFB00283FF42D
:10AAE0006FAF80211620FEF748FB00283FF468AFC7
:10AAF00000210E20FEF741FB00287FF474AF5FE7D2
:10AB00000521E1E70023A3700123637178E700BF0B
:10AB10006D5B0500905B0500AF5B0500D15B050038
:10AB20002DE97F4F0446154608469B460378012BC6
:10AB300001D0042B0CD12268012B0CBF81884188E5
:10AB4000D268204690470028F0D104B0BDE8708F4D
:10AB5000032B5DD1236841885B6920469847824674
:10AB6000002841D014F0A0FF019000232B609946EB
:10AB70009846019B994540D023683AF819101B6903
:10AB8000204698470646002835D023684188DB6870
:10AB900020469847014670B333799B0726D50DF1BF
:10ABA0000B0303AA2046FFF7BBFF00B90390039AEB
:10ABB0000AB39DF80B303079984538BF9846C007E6
:10ABC000C3F1000106D4013A1A4401EA0300024429
:10ABD0000A4003922A68013B1344039A0B40134432
:10ABE0002B6009F10109C4E70190BEE70423039338
:10ABF0008DF80B30DBE70020A7E72B68013B4344CF
:10AC0000C8F1000213402B6001208BF800809CE704
:10AC10005A462946FFF77CF897E700002DE9704F68
:10AC20002DED028B04468EB08A4691461D4616468F
:10AC30004FF6FF783378012B0ED12068B188036876
:10AC4000DB68984710B94FF0000937E0B6F802808A
:10AC5000B6F804A00646EDE7042BF4D801A252F89A
:10AC600023F000BF79AC020047AC0200FFAD020048
:10AC7000D5AE020083B00200B378013B0B2BE2D8C3
:10AC8000DFE803F00622262A3E425364787C909443
:10AC9000606803689B680AA99847A36801225868FE
:10ACA000294603F086FA01232968A0680AAA03F05E
:10ACB00089FA2B6801332B604FF0010948460EB02A
:10ACC000BDEC028BBDE8708F60680368DB68E2E76B
:10ACD000606803681B69DEE7606803685B690AA94E
:10ACE0009847A36802225868294603F062FA0223B3
:10ACF0002968A0680AAA03F065FA2B680233DAE72C
:10AD0000606803689B69EAE7606803680AA9DB6911
:10AD10009847A36829465868042203F04AFAA068B5
:10AD20000AAA294603F058FAC6E7606803680AA928
:10AD30001B6A9847A36829465868042203F039FA29
:10AD4000A0680AAA294603F047FAB5E760680368D5
:10AD50005B6A0AA99847A36808225868294603F045
:10AD600028FA08232968A0680AAA03F02BFA2B689E
:10AD70000833A0E7606803689B6AEAE760680368D5
:10AD80000AA9DB6A9847A36804225868294603F099
:10AD900010FA04232968A0680AAA03F013FA2B68A2
:10ADA000043388E7606803681B6BD2E76068036858
:10ADB00009A95B6B9847814600283FF47FAF09984B
:10ADC00028F0F5FA431C1A46A0680193012103F00C
:10ADD0000DFA0646A068027C4068B21A0A9229461B
:10ADE000042203F0E6F9A0680AAA294603F0F4F960
:10ADF000019B099AA068314603F0E4F95EE72068F8
:10AE000071880368DB689847814600283FF41BAFD0
:10AE100001460DF11B032068768808AAFFF780FE23
:10AE200000283FF410AF6068036807AA1B6D414615
:10AE3000984700283FF407AFBDF81C30089A9DF8EA
:10AE40001B10A0685A4303F0D1F9D4F808C0099048
:10AE50009CF810302946C31A0422DCF804000A9337
:10AE600003F0A7F92968A068022307AA03F0AAF94A
:10AE70002B6802332B60A36829465868042203F02C
:10AE800098F92946A0680AAA03F0A6F90025BDF89A
:10AE90001C106068AAB29142036816D99B6D1146D6
:10AEA000984700283FF4CFAE09AB4A4631462046CA
:10AEB000FFF7B4FE00283FF4C6AE60680368DB6DA0
:10AEC000984701350028E2D1BDE65B6D41469847C1
:10AED0008146F3E66068036841461B6C984700288A
:10AEE0003FF4B1AE20680DF1190307AA4946FFF7F8
:10AEF00017FE00283FF4A7AEA3689DF819205868F4
:10AF0000294603F056F92068718803685B69984701
:10AF10000390002800F0B18014F0C6FD4FF0000B44
:10AF20000590059B5B4500F0A8802068039A0368A4
:10AF300032F81B101B699847019000283FF483AE3C
:10AF40002068019A03685188DB6898478146002889
:10AF50003FF479AE019B5B88014608EE103A206809
:10AF60000DF11A0308AAFFF7DBFD00283FF46BAED2
:10AF7000019B1B799A075BBF089A04924FF0000A65
:10AF800004225DBF9DF81AA008928DF81A20CDF812
:10AF900010A0DE0748D4A3689DF81A2058682946F7
:10AFA00003F007F92B68029301332B60019B606863
:10AFB0001A79036801999B6C09881E4602F0010208
:10AFC0000DF11B03B04700283FF43DAE019B9DF8F7
:10AFD0001B201B796AB3980729D45146049AA068AC
:10AFE00003F004F9A368099093F810A00422A0EBE1
:10AFF0000A0A2946586803F0DCF8A068CDF828A0B2
:10B000000AAA294603F0E8F809AB4A4618EE101AD6
:10B010002046FFF703FE814600283FF44FAE019B18
:10B020001B79DB070AD510E000230293BEE72B460D
:10B03000EBE7D9073FF507AE9A0712D40299A0684B
:10B0400001230DF11B0203F0BDF86068019A03684B
:10B050001188DB6C984700283FF4F5AD0BF1010B2C
:10B060005FE7A3689DF81A205868294603F0A1F805
:10B070002B68089A13442B60D1E7606803685B6C07
:10B0800024E7206871880368DB68984781460028B8
:10B090003FF4D9AD23680D4A6068ADF830A0CDE922
:10B0A0000A2303680AAA9B6B4146984700283FF48D
:10B0B000CAAD71882B464A462046FFF7AFFD0028EF
:10B0C0003FF4C1AD60680368DB6BFFE6A8BB050019
:10B0D00073B50D461646044620B9244841F25F2157
:10B0E0001FF013FB19F06CFA94F8583002229642C4
:10B0F000DBB284F8582005D0032E01D0616D0D43DA
:10B10000656502E0626D01326265012B29D1211D66
:10B110000846019119F09AFA154AE36A10680199F4
:10B12000834288BF1360134A142000FB032019F0E8
:10B130009DFAA36A23B10D4841F29F211FF0E5FA61
:10B1400019F040FB0C4BE26A1B68DB6A9A4208D993
:10B150000A4B4FF080525A6040BFBFF34F8FBFF38E
:10B160006F8F19F019FA012002B070BDFD5B050068
:10B1700050310020243000202030002000ED00E07D
:10B180004368C0689978012202FA01F1FFF7A0BF75
:10B1900070B51D4C06460D4619F012FA236893F857
:10B1A0005830022B13D023685A6D5A652368012149
:10B1B00083F858105DB1284619F0AAFA134B4FF0E6
:10B1C00080525A6040BFBFF34F8FBFF36F8F19F0AB
:10B1D000E3F919F0F5F923685B6D3360236893F8A0
:10B1E0005830022B08BF23684FF0000504BF5A6D8A
:10B1F0005D6523684FF0000208BF012583F85820E1
:10B2000019F0CAF9284670BD2030002000ED00E09A
:10B210002DE970418FB0002301900546007BADF809
:10B2200009308DF80B308DF808101BF0C7FC01AE0B
:10B230000446804640B1304619F02BF99DF80A804B
:10B2400040460FB0BDE87081274BCDE90636274B4D
:10B2500006A9CDE90830287B1BF084FC05460028B0
:10B26000EED021461BF070F9214BCDE90A36214B77
:10B270002046CDE90C341BF0A1FC58B316F01EFE9D
:10B2800080461BF03BF8D8F81C300393DB688DF840
:10B2900010400646059303A814F011FE30B1426930
:10B2A000964207D190F860400F2C07D128461BF03A
:10B2B0000BFCC3E703A814F0F5FDECE716F0FEFD68
:10B2C000214615F033FA0028F0D00AA90C3016F008
:10B2D000A5FEEBE70AA818F080FF0028E6D10320BE
:10B2E0001AF0CCFAF6E700BF74BA050093440400E4
:10B2F00060BA05001742040070B5154686B00C46CA
:10B3000009B19E2A03D91F4966201FF035FA1E4E47
:10B3100031884FF6FF72914229D01022002102A8F5
:10B32000ADF8065027F05AFE184B1B88ADF80830D0
:10B3300001238DF80A300023ADF80C300DF106031F
:10B34000CDE90434308802A9FEF770FB13280246C9
:10B3500003D102201AF092FAF4E710B9012006B0E6
:10B3600070BD0B4901201BF007F90020F7E7094BDE
:10B3700009480A49C01AC008000440F004001FF040
:10B38000CFFCF2E7055C05001C2A002000300020FD
:10B390005A5C0500546506009C6506002CC9050032
:10B3A0002DE9704F2DED028BAEB008EE102A064647
:10B3B0000F9105931CF0ECF80F9B13F4803F33685A
:10B3C00000F001089B6818BF4FF0010804463046A2
:10B3D000984768F30004BDF83C3007930694C4F323
:10B3E00003130DF15C081AAC0E930194DDE90623FA
:10B3F000CDF800804FF00301834616F003FAC82809
:10B40000109040F02881069BD8073ED4214658462C
:10B4100015F02BFC0446002837D1994B269326AA19
:10B420000421404614F0B4FE00287AD0214626A814
:10B4300014F050FD0646002873D018EE103A9B78A1
:10B44000D90748BF18EE103A41884CBF1C884FF608
:10B45000FF74A14255D0002C53D04FF6FF73994290
:10B4600049D1884901201BF087F817A814F0D6FEAF
:10B47000BDF85C308449024601201BF07DF87388DA
:10B480008249224601201BF077F8BDF872300993FB
:10B49000099A4FF6FF739A4200F0DD80DBF8140042
:10B4A00012F09CFE059B5B68002B6DD0199B9B786E
:10B4B0005B0969D0DBF8401026A8083115F0A1F926
:10B4C000269BBDF89C20DB899A425DD026A815F00A
:10B4D00070F9079AC388934252D1083000236FF065
:10B4E000004250F8041B9142DCB226D00133042BF9
:10B4F000F7D11C4622E0224626A814F053FD00286E
:10B50000AFD0199B9B7826A85B09089314F014FD13
:10B51000089B0090059A042126A814F063FD0028DA
:10B52000B3D1584901201BF027F8404614F076FEAD
:10B53000BDF85C3054490246A4E72CB3059B1B7947
:10B540009C4221D8059B0DF1740903F108080026DF
:10B5500040461CF0DFFE0136F3B29C4249F8040B72
:10B5600008F10808F4D8002C08BF01241DAB6FF0C7
:10B570000042E1B204291DD043F824200134F8E749
:10B5800026A815F029F99BE700230D93079B089344
:10B590000E9B0B9300230A930F230C930999DBF85E
:10B5A0003C0015F0E7F8814630B940F2FE213848FA
:10B5B000FCF7CEFC0123E8E7023015F0E7F8C0F312
:10B5C000031308EE903AB9F800300993059B5B68C5
:10B5D0000446C0F307264FEA1048002B6AD00D9BA3
:10B5E000002B67D0DBF8401011900DF1980908315D
:10B5F000484615F006F924F00F031293269BBDF878
:10B600009C10DB89994255D0484615F0D2F8119B21
:10B61000129A016803F00F031A431192129A13430E
:10B6200021F0FF01139323F0FF03994223D1C38834
:10B63000079A93421FD1DBF840001DAB214615F05D
:10B640008EFA48BB099A4FF6FF739A42A6D1DBF8EF
:10B65000140012F0B7FD109BADF898300023009352
:10B660000C490F9BA52226A81BF099FF2EB0BDEC1C
:10B67000028BBDE8708F484615F0AEF8BEE700BFFC
:10B680003CBB0500685C05008F5C0500CD570500DC
:10B690007C570500005D05000378DB07D2D50379F0
:10B6A000456803F00F021B090B9343790A93C38883
:10B6B0000C920893DBF8140012F084FD002E68D081
:10B6C000DBF81880314608F10C0003F011FC437BD5
:10B6D000092B07D018EE100AFCF706FC0599404626
:10B6E00004F02CF80DF185001BF0FEFA16AB029366
:10B6F0000DF1520301930DF1840915AB00934A46F5
:10B7000014AB3146404604F027F8C82836D1BDF8BE
:10B7100052300C99ADF8A8309DF8B0304C4A1698CC
:10B720002D9461F303030B99CDE9262861F30713E8
:10B7300014AA28928DF8B030159A0A9B29928DF898
:10B74000B130089BADF8B23003689E680C9B63F380
:10B75000030A0A9B61F3071A63F30F2A089B63F33A
:10B760001F4A26AB00220193059B2B92CDE9029242
:10B770000093524618EE103A2146B047099A4FF608
:10B78000FF739A423FF467AFDBF8140012F026FD16
:10B7900004E7069B0E9AE6B262F307130693734022
:10B7A00013F0F00902D12B4B1B786BB318EE901AF3
:10B7B000584614F0D3FF036806F00106D3F8208042
:10B7C000002E40D001230C9A019362F303050B9ADB
:10B7D000059B009362F307150A9A62F30F25089AF6
:10B7E00062F31F4518EE103A2A4624F47F41C04701
:10B7F0001BF095FB0028C1D1002EBFD1584616F092
:10B8000015FD4FF45771D2E64146584615F01CFB22
:10B8100098B103685C6A0C9B63F303050B9B63F3AD
:10B8200007150A9B63F30F25089B63F31F4518EE6A
:10B83000102A059B2946A047A0E707494246012058
:10B840001AF09AFE9AE7B9FA89F35B09BBE700BFE1
:10B8500074BB0500612E00209A5C050007B5054BFE
:10B860006A46CDE90031044B0449FFF799FD03B066
:10B870005DF804FB09000300342E002000410100A4
:10B8800007B5064B6A46CDE90031054B4FF49F31B1
:10B89000FFF786FD03B05DF804FB00BF013E030027
:10B8A000342E002007B54FF00313CDE900316A466E
:10B8B000034B0449FFF774FD03B05DF804FB00BFC0
:10B8C000342E00200132010007B5054BCDE90032CE
:10B8D000044B6A46FFF764FD03B05DF804FB00BF4C
:10B8E00001000300342E00202DE9704F86B00C4675
:10B8F00005464FEA114816F0E1FA064628461BF0C5
:10B90000B1FA2F4B1B78C4F30729002B48D0B9F1AB
:10B91000000F04D040F216412A48FCF719FB69F3E6
:10B920000F24C0F30313424668F31F4405464FEA51
:10B93000104A4FF008013046039315F04DFF04F014
:10B940000F020F2A1AD0706912F048FC039BD6F838
:10B9500040B063F3071569F30F246AF31F4568F3DA
:10B960001F4429462246584615F027F9014610B1D2
:10B97000584614F00AFB706912F024FC5146304618
:10B9800015F062FA10B940F24141C5E703686FF360
:10B990000F2468F31F441D692246C8230021A847CD
:10B9A000C823ADF81630002300930749434640F200
:10B9B0001B120DF116001BF0F2FD06B0BDE8708FF2
:10B9C000602E00207C570500155D05002DE97741AC
:10B9D00004462B4D2B49DFF8BC80024601201AF0AB
:10B9E000CBFD55F8246058F82430FEB11BB9264928
:10B9F000A3201EF0C1FE58F8240001901EF040FE66
:10BA000055F82430013345F82430204B53F82420D6
:10BA1000B2F5C87F03D94FF4C87243F8242001A8B7
:10BA200001F040FD012003B0BDE870811BB1164953
:10BA3000AB201EF0A1FE1EF0B9FD48F8240018B995
:10BA40001149AD201EF098FE58F8240001901EF018
:10BA500017FE55F82430013345F824300C4B53F8C9
:10BA600024302BB90849B2201EF086FE06E00136CC
:10BA700053F83620202AFAD9002EF3D0034BCAE718
:10BA8000982E0020285D0500425D0500882E0020CC
:10BA900050BE0500902E00202DE9704F2A4B1B68E8
:10BAA00086B0054623B929494FF49A701EF064FE0A
:10BAB00025B9264940F235101EF05EFE244C22685E
:10BAC00022B9224940F237101EF056FE206803903A
:10BAD0001EF0D6FDFDF78CFFDFF878A0DFF878B018
